:020000040800F2
:1000000090A70020AD1200087504000877040008CE
:100010007B0400087F04000883040008000000003F
:10002000000000000000000000000000870400083D
:1000300089040008000000008B0400088D040008FB
:10004000C7120008C7120008C71200080D0B0008ED
:10005000C7120008C7120008C7120008C71200081C
:10006000C7120008C7120008C7120008C71200080C
:10007000C7120008C7120008CF110008C7120008F5
:10008000C7120008C7120008C7120008C7120008EC
:10009000C7120008C7120008C7120008C7120008DC
:1000A000C7120008C7120008C7120008C7120008CC
:1000B000C71200085D670008C7120008C7120008D1
:1000C000C7120008C7120008C7120008C7120008AC
:1000D000C7120008EB100008C712000875110008CD
:1000E000C71200080B0B0008C7120008C71200084F
:1000F000C7120008C7120008C7120008C71200087C
:10010000C7120008C7120008C7120008C71200086B
:10011000C7120008C7120008C7120008436700088A
:10012000C7120008C7120008C7120008C71200084B
:10013000C7120008C7120008C7120008C71200083B
:10014000C7120008C7120008C7120008C71200082B
:10015000C7120008591200083F1100080B120008CE
:10016000C7120008C7120008C7120008C71200080B
:10017000C7120008C7120008C7120008C7120008FB
:10018000C7120008C712000800F002F800F04DF88E
:100190000AA090E8000C82448344AAF10107DA45E2
:1001A00001D100F042F8AFF2090EBAE80F0013F0E7
:1001B000010F18BFFB1A43F0010318479C8300008E
:1001C000BC830000103A24BF78C878C1FAD852071F
:1001D00024BF30C830C144BF04680C6070470000C1
:1001E0000023002400250026103A28BF78C1FBD840
:1001F000520728BF30C148BF0B607047642907F021
:100200008B82732907F05386002070471FB507F0D3
:10021000C7FF07F049FF04000020002107F0AAFFF4
:10022000401C60601FBD10B510BD07F018FF1146DF
:10023000FFF7ECFF00F070F807F048FF03B4FFF79A
:10024000F2FF03BC07F088FF7F48407880B97F4801
:100250000088401C7D4908800846008844F62061DB
:10026000884205DD002079490880012076494870E0
:10027000704710B50120764981F8B104754988703E
:1002800075498870002008706F494870087070497F
:1002900081F8B00481F8B1044FF400416F4801F0D7
:1002A00099F94FF400516E4801F094F94FF4007140
:1002B0006C4801F08FF94FF480716A4801F08AF9B7
:1002C0004021664801F084F910BD70B505460E4620
:1002D00014462CB13146284606F0E2FC624908700B
:1002E00061480078012807D140215C4801F072F98B
:1002F000012006F04DFB0EE04021584801F068F95E
:1003000005E03146284606F0CBFC574908705648B0
:1003100000780028F5D070BD1CB500F0C1F94FF48D
:10032000A06000F0E3FFA82000F01CFC42F2CF0127
:10033000092006F0DBF942F2CF01092006F0AAF904
:10034000012000210B460A46CDE900104FF416515A
:1003500000F02BFE012000210B460A46CDE90010DB
:100360004FF4E131062000F020FE012000210B4671
:100370000A46CDE900104FF41651032000F015FE97
:100380004CF25031082000F0C5FB05F045FF00F0AD
:1003900075FB00F09BFAFFF76CFF54E02A480078E9
:1003A00030B1022830D003283DD004284AD140E0A3
:1003B00025484078B0B906F023F958B14FF4807160
:1003C000284801F005F94021244801F003F90220F2
:1003D0001D49087025A006F02AFBA0B103201A4988
:1003E000087010E04FF400511D4801F0F1F84FF48F
:1003F00000711C4801F0ECF81CA006F018FB10B1CD
:100400000320114908701DE000BF05F0B2FB002871
:10041000FBD105F001FF15A006F009FB10B1032088
:10042000094908700EE006F0CBFA0420064908706E
:1004300008E04FF41651032004F07DF901E005F0C7
:100440009DF8FCE700BFA9E70000002002000020A3
:1004500034100020EC000020140500200018024099
:100460000008024000040240040000205244590DDC
:100470000A000000704700BFFEE700BFFEE700BFB4
:10048000FEE700BFFEE77047704770477047000007
:100490000CB50020019000907648006840F4803050
:1004A0007449086000BF7348006800F40030009091
:1004B0000198401C0190009818B90198B0F5A04F20
:1004C000F1D16C48006800F4003010B101200090B8
:1004D00001E0002000900098012846D16548403096
:1004E000006840F08050634940310860624800680D
:1004F00040F44040604908605E48083000685D494B
:10050000083108600846006840F40040086008466A
:10051000006840F4A05008605848091F0860081F90
:10052000006840F08070091F086000BF51480068F3
:1005300000F000700028F9D040F2057050490860C2
:100540004C480830006820F003004A490831086030
:100550000846006840F00200086000BF45480830C7
:10056000006800F00C000828F8D10CBD10B5454813
:10057000006840F47000434908603E48006840F05D
:1005800001003C49086000203A49083108603948B8
:1005900000683D490840374908603C48091D08602B
:1005A000081F006820F48020091F086000203149DE
:1005B0000C310860FFF76CFF4FF000603149803963
:1005C000086010BD70B50020002202230024022123
:1005D000284D08352D6805F00C0020B1042806D000
:1005E000082834D107E02A4D2A4E356033E02A4DE1
:1005F000284E35602FE01F4D2D1D2D68C5F380540A
:100600001C4D2D1D2D6805F03F0154B1224DB5FB49
:10061000F1F5184E361D3668C6F3881605FB06F24E
:1006200009E01B4DB5FBF1F5124E361D3668C6F3D9
:10063000881605FB06F20F4D2D1D2D68C5F30145EB
:100640006D1C6B00B2FBF3F5124E356003E0104DEC
:10065000104E356000BF00BF064D08352D68C5F34C
:1006600003150E4E705D0B4D2D68C540094E35606B
:1006700070BD000000380240007000400854400780
:10068000003C024088ED00E0FFFFF6FE1030002441
:100690000024F4000800002000127A000C00002062
:1006A0001CB50121462001F0B5F94FF4004000903F
:1006B00001208DF8040003208DF8050069462948C3
:1006C00000F00AFF4FF40050009001208DF8040064
:1006D00003208DF805006946234800F0FDFE4FF425
:1006E0000070009001208DF8040003208DF80500B3
:1006F00069461E4800F0F0FE4FF480700090012023
:100700008DF8040003208DF805006946174800F0B5
:10071000E3FE4020009001208DF8040003208DF8B6
:10072000050069460F4800F0D7FE4FF400410D4820
:1007300000F050FF4FF400510B4800F049FF4FF418
:1007400000710A4800F044FF4FF48071074800F040
:100750003FFF4021034800F03DFF1CBD42694A4075
:100760004261704700180240000802400004024045
:1007700001460868704701464948814201D200207D
:1007800070474848814201D20820F9E74648814233
:1007900001D21020F4E74548814201D21820EFE74A
:1007A0004348814201D22020EAE74248814201D2F7
:1007B0002820E5E74048814201D23020E0E73F4869
:1007C000814201D23820DBE73D48814201D24020FE
:1007D000D6E73C48814201D24820D1E73A488142DD
:1007E00001D25020CCE75820CAE770B50446002556
:1007F000B4F1006F02D304F0030000B170BD02F049
:10080000EBFC002002F0CBFC25462846FFF7B3FFA7
:100810000646022102F034FD012002F0C0FC02F085
:10082000E8FC00BFEAE72DE9F04104460D46164614
:1008300009274FF00008B4F1006F02D304F0030061
:1008400008B1BDE8F08102F0C7FC002002F0A7FC6F
:1008500004EB8608092F0CD108E02046296802F035
:1008600028FE092800D003E0241D2D1D4445F4D3A3
:1008700000BF012002F093FC02F0BBFC00BFE0E7E8
:1008800030B503460C461546002206E01846FFF731
:100890006FFF44F822001B1D521CAA42F6D330BD44
:1008A000004000080080000800C0000800000108A7
:1008B0000000020800000408000006080000080804
:1008C00000000A0800000C0800000E081CB50121F9
:1008D000202001F09FF84020009001208DF80400B6
:1008E00003208DF805006946074800F0F5FD40211A
:1008F000054800F06DFEC82000F096F9402102483E
:1009000000F068FE1CBD000000140240F8B504466B
:100910000D4617461E468DF800408DF801508DF8A3
:1009200002708DF803606946002003F079F9F8BD84
:10093000F8B504460D4617461E468DF802708DF830
:1009400001508DF800608DF803406946002003F0E7
:1009500005FAF8BD10B58EB00DA9002003F0CAF954
:100960000CA9002003F060FA9DF8340003909DF874
:10097000350002909DF8360001909DF832000490F9
:100980009DF8310005909DF83300069001A807F00E
:1009900048F9044620460EB010BD30B58DB004466F
:1009A000002504E0605D30386055681CC5B2112D2B
:1009B000F8DB207800EB8000642101EB40006178D7
:1009C0000844C0B28DF82F002079E17801EB810155
:1009D00000EB4100401EC0B28DF82D00E079A179F6
:1009E00001EB810100EB4100C0B28DF82E00A07A2E
:1009F000617A01EB810100EB4100C0B28DF830005B
:100A0000607B217B01EB810100EB4100C0B28DF8DE
:100A10003100207CE17B01EB810100EB4100C0B2A1
:100A20008DF832009DF832209DF831109DF830008D
:100A30000023FFF76BFF9DF82E209DF82D109DF8E9
:100A40002F000123FFF774FF9DF8300002909DF8FE
:100A5000310001909DF8320000909DF82E00039027
:100A60009DF82D0004909DF82F000590684607F032
:100A7000D8F82749086000200DB030BD3EB541F6DA
:100A8000FF740121080701F00EF8012002F0BBFEFF
:100A9000002003F021FD45F25001884231D00120B1
:100AA00000F055FE04E0601C84B20A2000F0BCF89F
:100AB000412000F005FE0028F5D00CB901203EBD14
:100AC0004FF4807000F044FF012000F05CFF7F20B5
:100AD0000190FF20029000200090684603F005F886
:100AE000002338223B211720FFF710FF01230522A6
:100AF00011460E20FFF71CFF45F25001002003F0C5
:100B0000DEFC0020DBE7704770477047704700004D
:100B10002000002070B505460C4645F2555003F004
:100B2000D1FD284603F0D1FD204603F0D1FD03F0AE
:100B3000D2FD03F0D5FD002008490870486070BD63
:100B400010B5074A0549091D081F05F01BFE03489B
:100B5000007808B103F0BFFD10BD000024000020A4
:100B6000F049020010B504466FF0040000F010FCDC
:100B7000E11704EB5171C1F3C7013F4A11701046F0
:100B8000007800EB4001C1EBC0104FF6FF7101EAA5
:100B9000C0003A49088010BD0146374A12784A43DE
:100BA0004FF0E0235A6100229A611A46126942F01E
:100BB00001021A6100BF4FF0E022106900F001024B
:100BC0001AB100F48032002AF5D04FF0E022126909
:100BD00022F001024FF0E0231A6100229A6170476F
:100BE0000146264A12884A434FF0E0235A61002208
:100BF0009A611A46126942F001021A6100BF4FF071
:100C0000E022106900F001021AB100F48032002ADB
:100C1000F5D04FF0E022126922F001024FF0E023FC
:100C20001A6100229A61704770B504464FF407704C
:100C300094FBF0F0C6B24FF4077094FBF0F100FBA8
:100C4000114085B205E04FF40770FFF7C9FF701E31
:100C5000C6B2002EF7D115B12846FFF7C1FF70BD0F
:100C600010B5044605E04FF47A70FFF7DDFF601E13
:100C700084B2002CF7D110BD2C0000202E000020E3
:100C80002DE9F04790B007460C4615461E46DDE9B3
:100C9000199ADDF86080F748844204D9012188055B
:100CA00000F0B8FE03E00121480500F0B3FE204645
:100CB00002F080F800BF204602F0A5F90028FAD122
:100CC00001950296CDF80C8040200490CDF8149048
:100CD000002006904FF48060079000200890099053
:100CE0000A904FF480300B9000200C9003200D9060
:100CF00000200E900F9001A9204602F0FDF801227D
:100D00001021204602F0BFF901228021384601F06F
:100D100071F90AF0FF008DF8000001208DF8010044
:100D20008DF802008DF80300684600F0E4FA002117
:100D3000204602F01BF910B0BDE8F087F0B587B08F
:100D400007460C4615461E460121082000F062FEAB
:100D50000121042000F05EFE0121880400F0A3FEC2
:100D600007220821C44800F042FC07220921C2489A
:100D700000F03DFC4FF44070059002208DF8180003
:100D80008DF8190000208DF81A0001208DF81B0045
:100D900005A9B94800F0A0FB012005908DF81800C6
:100DA00003208DF8190000208DF81A0001208DF81D
:100DB0001B0005A9B14800F08FFBB14800F07EFF91
:100DC0000197ADF80840ADF80A50ADF80C6000206E
:100DD000ADF810000C20ADF80E0001A9A84800F0F5
:100DE000D4FF0121A64801F058F8012240F2255114
:100DF000A34801F008F9012240F22441A04801F083
:100E000002F927208DF8000001208DF801008DF8EF
:100E100002008DF80300684600F06DFA0020994941
:100E2000086007B0F0BDF0B587B007460C46154620
:100E30001E460121402000F0EDFD0121202000F0A0
:100E400043FE08220921904800F0D1FB08220E2120
:100E50008D4800F0CCFB4FF48440059002208DF8C3
:100E600018008DF8190000208DF81A0001208DF867
:100E70001B0005A9844800F02FFB844800F01EFFEA
:100E80000197ADF80840ADF80A50ADF80C600020AD
:100E9000ADF810000C20ADF80E0001A97B4800F061
:100EA00074FF0121794800F0F8FF4021774801F0F4
:100EB000DCF8012240F22551744801F0A4F8012227
:100EC00040F22441714801F09EF847208DF800005F
:100ED00001208DF801008DF802008DF803006846AE
:100EE00000F009FA07B0F0BDF0B587B007460C4630
:100EF00015461E460121084600F08CFD01211020F8
:100F000000F0E2FD07220921614800F070FB072292
:100F10000A215F4800F06BFB4FF4C060059002208F
:100F20008DF818008DF8190000208DF81A000120A6
:100F30008DF81B0005A9564800F0CEFA554800F080
:100F4000BDFE0197ADF80840ADF80A50ADF80C6051
:100F50000020ADF810000C20ADF80E0001A94D489E
:100F600000F013FF01214B4800F097FF4021494852
:100F700001F07BF8012240F22551464801F043F888
:100F8000012240F22441434801F03DF825208DF82C
:100F9000000001208DF801008DF802008DF803009B
:100FA000684600F0A8F907B0F0BD2DE9FE430446FD
:100FB0000E4617469846DDE90A95012C17D1012DFA
:100FC00015D14B46424639463046FFF78DFF462144
:100FD00040F2031230482F4B1B1DCDE90121009038
:100FE0005A062449B831181FFFF74AFE32E0062C92
:100FF00018D1012D16D14B46424639463046FFF7EF
:1010000012FF45214FF4AF622448204B1B1DCDE950
:10101000012100904FF020621649A031181FFFF700
:101020002FFE17E0032C15D1012D13D14B4642465C
:1010300039463046FFF782FE0E2140F2031218486F
:101040000F4B1B1DCDE9012100905A061549181FB1
:10105000FFF716FEBDE8FE8370B504460D46114845
:10106000844221D101200E49491F4870054908607A
:1010700028E0000000640240000C0240000802402A
:101080000048004080024142001802400014014024
:101090000000024000100140F1000020190500206E
:1010A00005030020586002407648844203D10120A5
:1010B0007549487006E073481830844202D1012017
:1010C000724948700021204601F050FF00BF2046C1
:1010D00001F099FF0028FAD12946204601F067FF68
:1010E0000121204601F042FF70BD10B540F22551AC
:1010F000674800F0C3FFB8B1022064490870644833
:1011000000F0FAFEC4B26149204605F089F940F2C8
:1011100025515F4800F0A9FF40F225515C4800F0DE
:10112000E8FF01205949087040F22441584800F076
:10113000A5FF18B1564800885548808810BD10B5E5
:101140004FF020514F48183001F06DFF88B1002159
:101150004E48A0F8121200204C4948704FF0205120
:101160004848183001F07BFF00214648183001F054
:10117000FDFE10BD10B540F22551464800F07EFF3F
:10118000B0B1022044490870424800F0B5FEC4B234
:10119000204603F007FC40F225513E4800F065FF71
:1011A00040F225513B4800F0A4FF01203A49087065
:1011B00040F22441374800F061FF38B10120364940
:1011C0004870344800883348001D008810BD10B5B1
:1011D0004FF0C051314801F026FFA8B100212E4840
:1011E000A0F8121200202C4948704FF0C0512B4833
:1011F00001F035FF0021294801F0B8FE0220FFF779
:1012000013FD00202649086010BD10B540F225519D
:10121000244800F033FF98B1224800F06DFEC4B2BC
:101220001949204605F073F91749087040F2255115
:101230001C4800F01AFF40F225511A4800F059FFEF
:1012400040F22441174800F019FF20B115480088EA
:101250001448001D008810BD10B51349094801F05D
:10126000E2FE70B100210848A0F8FC1A00200649EF
:1012700048700D49034801F0F2FE0021014801F0D9
:1012800075FE10BDA064024014050020EC00002093
:101290000010014000480040000300205860024058
:1012A000800241420014014000002020094880478C
:1012B00009480047FEE7FEE7FEE7FEE7FEE7FEE738
:1012C000FEE7FEE7FEE7FEE704480549054A064B50
:1012D000704700006D0500088901000890A10020FA
:1012E00090A7002090A3002090A300203249014342
:1012F000324A1160704770B5002100230F22C47874
:101300001CB32E4C246804F4E064C4F5E064C4F318
:101310000721C1F10404E3B20A4144789C40E1B2E0
:101320008478144021430C07210E254C0578615523
:10133000047804F01F050124AC4005786D11AD0060
:1013400005F1E025C5F8004109E0047804F01F0527
:101350000124AC401B4D0678761145F8264070BD3F
:10136000194A0A400243154B1B1F1A60704739B1D6
:10137000124A121D12680243104B1B1D1A6006E030
:101380000E4A121D126882430C4B1B1D1A607047D7
:10139000042808D14FF0E021096941F004014FF021
:1013A000E022116107E04FF0E021096921F004011A
:1013B0004FF0E022116170470000FA050CED00E0EB
:1013C00000E400E080E100E080FFFF1F10B504466C
:1013D0009848844208D10121084600F086FB00218C
:1013E000012000F082FB76E09348844208D101217D
:1013F000022000F07AFB0021022000F076FB6AE078
:101400008E48844208D10121042000F06EFB0021A7
:10141000042000F06AFB5EE08948844208D1012183
:10142000082000F062FB0021082000F05EFB52E083
:101430008448844208D10121102000F056FB00218D
:10144000102000F052FB46E07F48844208D1012181
:10145000202000F04AFB0021202000F046FB3AE06B
:101460007A48844208D10121402000F03EFB00214F
:10147000402000F03AFB2EE07548844208D101215B
:10148000802000F032FB0021802000F02EFB22E0C3
:101490007048844208D10121801500F026FB00210C
:1014A000A01500F022FB16E06B48844208D1012110
:1014B000401500F01AFB0021601500F016FB0AE051
:1014C0006648844207D10121001500F00EFB00217F
:1014D000201500F00AFB10BDF0B50A4600210023DC
:1014E000002400BF3DE0012505FA01F3156805EA77
:1014F00003049C4234D105684F000326BE40B54327
:10150000056015794E00B5400668354305601579CC
:10151000012D02D01579022D16D185684F000326C2
:10152000BE40B543856055794E00B5408668354369
:101530008560456801268E40B543456045689679CB
:101540008E40B6B235434560C5684F000326BE40A5
:10155000B543C560D5794E00B540C6683543C56012
:10156000491C1029BFD3F0BD4FF6FF710160002167
:10157000017141718171C171704708B54FF48032BA
:101580000092009A0A430092009AC261C161009AD7
:10159000C261C2690092C269009208BD0246002081
:1015A00013690B400BB1012000E000207047014699
:1015B000086980B270470246002053690B400BB1A6
:1015C000012000E0002070470146486980B2704762
:1015D00001837047418370470AB1018300E0418372
:1015E00070474161704742694A4042617047F0B5B7
:1015F000002300244D07ED0E02FA05F3CE1000F192
:10160000200555F826504E07F70E0F26BE40B5436D
:10161000CF1000F1200646F82750CE1000F120052B
:1016200055F8265045EA0304CE1000F1200545F890
:101630002640F0BD000002400004024000080240C5
:10164000000C02400010024000140240001802404A
:10165000001C0240002002400024024000280240FA
:10166000F948006840F00100F74908600020F64999
:1016700008310860F4480068F4490840F2490860FD
:10168000F348091D0860F348EF4984310860F048C9
:101690001038091D0860EC48006820F48020EA49F1
:1016A00008600020E8490C310860E7498C31086087
:1016B00070470021E44A921C11701146087070476F
:1016C00010B501460022002300204A11012A02D150
:1016D000DD4C236808E0022A03D1DB4C7034236818
:1016E00002E0D94C7434236801F01F0201249440B5
:1016F0001C400CB1012000E0002010BD38B50020D6
:1017000000900024002500BF3120FFF7D9FF0546D7
:101710000098401C00900098B0F5A04F01D0002D1B
:10172000F2D03120FFF7CCFF08B1012400E0002403
:10173000204638BD01460020C34A106820F0F8005A
:1017400040EAC10010607047C3490860704700213B
:10175000BD4A703211701170012802D004280AD1DC
:1017600004E00121B84A7032117005E00521B64A43
:101770007032117000E000BF00BF7047B7490860C9
:10178000704770B5049C41EA82150126C6EB5306EA
:1017900045EA0645054345EA0465AB4E361D35600E
:1017A00070BDAD4908667047820142EA0172A64BDE
:1017B00084331A607047A8498866704710B5830162
:1017C00043EA016343EA02739F4C8834236010BDEF
:1017D000A14908677047A049C864704702460020C5
:1017E000994B0833186820F0EC6042EA0103184373
:1017F000954B08331860704702460020924B08331F
:10180000186820F0784042EA010318438E4B0833F1
:1018100018607047014600208B4A0832106820F09B
:10182000030008431060704787480830006800F0E4
:101830000C00704701460020834A0832106820F0EF
:10184000F000084310607047014600207E4A0832CD
:10185000106820F4E05008431060704701460020F3
:10186000794A0832106820F4604040EAC1001060F4
:101870007047F0B500210022002402250026022333
:10188000714F08373F6807F00C0121B1042905D0DA
:10189000082937D105E0724F076036E0714F0760C5
:1018A00033E0694F3F1D3F68C7F38056664F3F1DC9
:1018B0003F6807F03F036EB16A4FB7FBF3F7DFF8FD
:1018C00088C10CF1040CDCF800C0CCF3881C07FBC9
:1018D0000CF40CE0624FB7FBF3F7DFF86CC10CF1CE
:1018E000040CDCF800C0CCF3881C07FB0CF4564F4A
:1018F0003F1D3F68C7F301477F1C7D00B4FBF5F730
:10190000076002E0564F076000BF00BF4E4F083728
:101910003F6807F0F0010909534F7A5C0768D74028
:101920004760494F08373F6807F4E051890A4E4F36
:101930007A5C4768D7408760434F08373F6807F4B1
:101940006041490B484F7A5C4768D740C760F0BD9B
:10195000002100F44072B2F5407F0AD13A4A0832C1
:10196000116821F4F811414A02401143364A083205
:101970001160354A70321268C0F30B031A43324BC0
:1019800070331A60704735494439086070473349ED
:1019900040390860704736490860704701460020AA
:1019A000294A8C32106820F01F004A1E1043264A34
:1019B0008C321060704701460020234A8C32106838
:1019C00020F4F8504A1E40EA02201F4A8C32106070
:1019D0007047014600201C4A8C32106820F44010E9
:1019E00008431060704701460020174A8C32106887
:1019F00020F4400008431060704701460020124A5E
:101A00008C32106820F44030084310607047194948
:101A10000860704739B10C4A3032126802430A4BF1
:101A200030331A6006E0084A303212688243064BAF
:101A300030331A607047F9B1034A343212680243F6
:101A4000014B34331A601CE000380240FFFFF6EA15
:101A5000103000240030002000004742800E474232
:101A60000024F40000127A0031000020FFFCFF0F78
:101A70005C014742E01147428F4A126882438E4B15
:101A80001A60704739B18C4A121D126802438A4BA2
:101A90001B1D1A6006E0884A121D12688243864B9D
:101AA0001B1D1A60704739B1834A0C321268024319
:101AB000814B0C331A6006E07F4A0C321268824375
:101AC0007D4B0C331A60704739B17B4A1032126873
:101AD0000243794B10331A6006E0774A10321268DD
:101AE0008243754B10331A60704739B1724A243AF9
:101AF00012680243704B243B1A6006E06E4A243A97
:101B0000126882436C4B243B1A60704739B16A4AB1
:101B1000203A12680243684B203B1A6006E0664A8E
:101B2000203A12688243644B203B1A60704739B1F7
:101B3000614A1C3A126802435F4B1C3B1A6006E084
:101B40005D4A1C3A126882435B4B1C3B1A6070472B
:101B500039B1594A143A12680243574B143B1A6080
:101B600006E0554A143A12688243534B143B1A60FC
:101B7000704739B1504A103A126802434E4B103B3D
:101B80001A6006E04C4A103A126882434A4B103BF6
:101B90001A60704739B1484A1C3212680243464BFA
:101BA0001C331A6006E0444A1C3212688243424BDE
:101BB0001C331A60704739B13F4A20321268024321
:101BC0003D4B20331A6006E03B4A203212688243C4
:101BD000394B20331A60704739B1374A24321268C2
:101BE0000243354B24331A6006E0334A243212682C
:101BF0008243314B24331A60704739B12E4A2C325C
:101C0000126802432C4B2C331A6006E02A4A2C320D
:101C100012688243284B2C331A60704739B1264A28
:101C2000303212680243244B30331A6006E0224AF5
:101C3000303212688243204B30331A6070470128DB
:101C400008D11D493C31096841F008011A4A3C326B
:101C5000116007E018493C31096821F00801164A73
:101C60003C321160704739B1134A273A1278024367
:101C7000114B273B1A7006E00F4A273A127882432D
:101C80000D4B273B1A7070470B484030006840F0FE
:101C90008070094940310860704701460020064ABB
:101CA000283A12680A400AB1012000E0002070477B
:101CB00001492639087070473438024010B504468F
:101CC000FA48844208D101211020FFF752FF002179
:101CD0001020FFF74EFF57E0F548844209D101215B
:101CE0004804FFF735FF00214FF40030FFF730FFC5
:101CF0004AE0F048844209D101218804FFF728FF17
:101D000000214FF48020FFF723FF3DE0EA488442A2
:101D100009D10121C804FFF71BFF00214FF4002067
:101D2000FFF716FF30E0E548844209D1012108059C
:101D3000FFF70EFF00214FF48010FFF709FF23E0AB
:101D4000DF48844208D101212020FFF712FF002143
:101D50002020FFF70EFF17E0DA48844209D1012165
:101D60008807FFF7F5FE00214FF08040FFF7F0FEF7
:101D70000AE0D548844207D101214005FFF7E8FE7B
:101D800000216005FFF7E4FE10BD2DE9FF47054681
:101D90000E460024A14600BFA046B08900B100BF96
:101DA0002C8A24F44054F08804432C82AC8941F2FC
:101DB0000C608443B0883189084371890843044327
:101DC000AC81AC8A24F44074B0890443AC82684688
:101DD000FFF74FFDB548854202D0B948854202D190
:101DE000DDF80C9001E0DDF80890A88900F40040CF
:101DF00040B109EBC90000EB091031684900B0FBA4
:101E0000F1F707E009EBC90000EB09103168890020
:101E1000B0FBF1F76420B7FBF0F004012009642166
:101E200001FB1078A88900F4004040B1322000EB9B
:101E3000C800B0FBF1F000F00700044308E03220D6
:101E400000EB08106421B0FBF1F000F00F00044338
:101E50002C81BDE8FF874FF416510160002181807D
:101E6000C18001810C21418100218181704710B521
:101E700002460020108A20F470600B884C882343AF
:101E80008C882343CC8823431843108210BD002143
:101E9000018041808180C180704721B1828942F4F4
:101EA0000052828104E082894DF6FF731A408281DC
:101EB0007047028B02F47F420283028B0A43028343
:101EC000704721B1828942F40042828103E0828915
:101ED000C2F30E028281704721B1828A42F400620D
:101EE000828204E0828A4FF2FF731A408282704736
:101EF000C1F308028280704701468888C0F3080059
:101F00007047028A4FF6F0731A400282028A0A432F
:101F10000282704721B1828942F00202828104E08C
:101F200082894FF6FD731A408281704782894FF291
:101F3000FF731A40828182890A4382817047028A34
:101F40004FF6DF731A400282028A0A430282704708
:101F500021B1028A42F48042028204E0028A4BF6F6
:101F6000FF731A4002827047818941F0010181812B
:101F7000704721B1828A42F00802828204E0828A9C
:101F80004FF6F7731A4082827047028BD2B20283F7
:101F9000028B42EA01220283704721B1828A42F019
:101FA0002002828204E0828A4FF6DF731A40828226
:101FB000704721B1828A42F01002828204E0828A54
:101FC0004FF6EF731A4082827047828A4FF6FB7396
:101FD0001A408282828A0A438282704721B1828AB1
:101FE00042F00202828204E0828A4FF6FD731A40B8
:101FF000828270471AB1838A0B43838202E0838A0C
:102000008B4383827047F0B50346002400260025E9
:10201000002040F66A17B94200D100BF1846C1F34C
:10202000421401F01F06012707FA06F5012C01D121
:102030000C3004E0022C01D1103000E014301AB151
:1020400007682F43076002E00768AF430760F0BDF1
:1020500002460020B1F5007F00D100BF13880B407D
:102060000BB1012000E00020704701F40072B2F5CE
:10207000007F00D100BFCA430280704770B502469E
:10208000002400230025002040F66A16B14200D14A
:1020900000BFC1F3421501F01F03012606FA03F346
:1020A000012D13D19689334017E000000010014044
:1020B0000044004000480040004C004000500040F8
:1020C0000014014000780040007C0040022D02D145
:1020D000168A334001E0968A33400C12012606FA34
:1020E00004F41688344013B10CB1012000E0002044
:1020F00070BD10B50022002340F66A14A14200D141
:1021000000BF0A1201249440A3B2DC43048010BD36
:1021100010B50446FE48844208D101210846FFF765
:1021200028FD00210120FFF724FD9DE0B4F1804F40
:1021300008D101210846FFF70BFD00210120FFF720
:1021400007FD91E0F348844208D101210220FFF706
:10215000FFFC00210220FFF7FBFC85E0EE488442F3
:1021600008D101210420FFF7F3FC00210420FFF730
:10217000EFFC79E0E948844208D101210820FFF70B
:10218000E7FC00210820FFF7E3FC6DE0E44884420F
:1021900008D101211020FFF7DBFC00211020FFF700
:1021A000D7FC61E0DF48844208D101212020FFF7FD
:1021B000CFFC00212020FFF7CBFC55E0DA48844219
:1021C00008D101210220FFF7D4FC00210220FFF7F3
:1021D000D0FC49E0D548844209D101210804FFF729
:1021E000C8FC00214FF48030FFF7C3FC3CE0D0482E
:1021F000844209D101214804FFF7BBFC00214FF4C0
:102200000030FFF7B6FC2FE0CA48844209D1012113
:102210008804FFF7AEFC00214FF48020FFF7A9FCF3
:1022200022E0C548844208D101214020FFF790FCFC
:1022300000214020FFF78CFC16E0C048844208D102
:1022400001218020FFF784FC00218020FFF780FC23
:102250000AE0BB48844207D101218015FFF778FCD2
:102260000021A015FFF774FC10BD00220288A84BC6
:1022700098420ED0AC4B98420BD0B0F1804F08D0B2
:10228000A44B984205D0A44B984202D0A34B98424D
:1022900004D14FF68F731A404B881A43A04B9842D3
:1022A00007D0A04B984204D04FF6FF431A400B8949
:1022B0001A4302804B68C3620B880385944B984293
:1022C00002D0994B984201D18B7A038601238382F5
:1022D00070474FF0FF314160002101800181418052
:1022E000817270470185828270470A460021018809
:1022F0004FF68F7319401143018070474162704758
:10230000C16270470146486A70470146088D7047B0
:1023100021B1028842F00202028004E002884FF6F6
:10232000FD731A400280704721B1028842F0040216
:10233000028004E002884FF6FB731A400280704767
:1023400021B1028842F08002028004E002884FF648
:102350007F731A400280704702884FF6F7731A4065
:10236000028002880A430280704702884FF6FF43CA
:102370001A40028002880A430280704721B1028815
:1023800042F00102028004E002884FF6FE731A4018
:102390000280704770B5002400220023058C4FF6A0
:1023A000FE7635400584028C8388048B4FF68F754A
:1023B0002C40B51E2C400D882C43751E2A408D895B
:1023C0002A434D882A43524DA84202D0564DA84276
:1023D00013D14FF6F7752A40CD892A434FF6FB7586
:1023E0002A408D882A434FF6FF652B404FF6FF5554
:1023F0002B400D8A2B434D8A2B43838004838D68A9
:102400004563028470BD70B5002400220023058C52
:102410004FF6EF7635400584028C8388048B48F6AE
:10242000FF752C404FF6FF452C400D884FF6FF7688
:1024300006EA05252C434FF6DF752A408D8906EA0A
:1024400005152A434D8806EA05152A43304DA84252
:1024500002D0354DA8421DD14FF67F752A40CD8957
:102460004FF6FF7606EA05152A434FF6BF752A4058
:102470008D8806EA05152A434FF6FF352B404FF2AB
:10248000FF752B400D8A06EA85052B434D8A06EA27
:1024900085052B43838004838D688563028470BD2A
:1024A00070B5002400220023058C4FF6FF663540EE
:1024B0000584028C8388848B4FF68F752C404FF6F1
:1024C000FC752C400D882C434FF6FF552A408D8912
:1024D0004FF6FF7606EA05252A434D8806EA0525CC
:1024E0002A430B4DA84202D00F4DA84238D14FF2DB
:1024F000FF752A40CD894FF6FF7606EA05252A4367
:102500004FF6FF352A408D8806EA05252A4319E053
:10251000000001400004004000080040000C0040A2
:102520000010004000140040000401400040014041
:10253000004401400048014000180040001C0040D9
:10254000002000404EF6FF752B404DF6FF752B40E6
:102550000D8A06EA05152B434D8A06EA05152B431D
:10256000838084838D68C563028470BD70B500224A
:1025700000230024058C4EF6FF7635400584038C3D
:102580008488828B48F6FF752A404FF6FF452A4023
:102590000D884FF6FF7606EA05252A434DF6FF75AE
:1025A0002B408D8906EA05352B434D8806EA053513
:1025B0002B43FE4DA84202D0FD4DA84208D14BF658
:1025C000FF752C400D8A4FF6FF7606EA85152C43E1
:1025D000848082838D680564038470BD002101803E
:1025E0004180818081608181C18101824182704707
:1025F00070B50346002000241846183001258D4090
:10260000ACB21D8CA5431D8409B108290AD100EB89
:10261000610005684FF68F76354005600568154303
:1026200005600FE00D1FC5F34E052844056848F608
:10263000FF763540056005684FF6FF7606EA02260C
:102640003543056070BD4163704781637047C16366
:102650007047016470470A460021018B4FF68F7363
:1026600019401143018370470A460021018B48F647
:10267000FF7319404FF6FF7303EA022319430183E6
:1026800070470A460021818B4FF68F731940114322
:10269000818370470A460021818B48F6FF731940F9
:1026A0004FF6FF7303EA02231943818370470A46FA
:1026B0000021018B4FF6F7731940114301837047D6
:1026C0000A460021018B4FF2FF7319404FF6FF734A
:1026D00003EA02231943018370470A460021818BD4
:1026E0004FF6F77319401143818370470A46002162
:1026F000818B4FF2FF7319404FF6FF7303EA0223F9
:102700001943818370470A460021018B4FF6FB7302
:1027100019401143018370470A460021018B4FF68F
:10272000FF3319404FF6FF7303EA02231943018375
:1027300070470A460021818B4FF6FB731940114305
:10274000818370470A460021818B4FF6FF33194081
:102750004FF6FF7303EA02231943818370470A4649
:102760000021018B4FF67F7319401143018370479D
:102770000A460021018BC1F30E014FF6FF7303EAF5
:1027800002231943018370470A460021818B4FF6CB
:102790007F7319401143818370470A460021818B62
:1027A000C1F30E014FF6FF7303EA0223194381833D
:1027B00070470A460021018C4FF6FD731940114302
:1027C000018470470A460021018C4FF6F7731940C7
:1027D0001143018470470A460021018C4FF6DF73D4
:1027E00019404FF6FF7303EA02131943018470473F
:1027F0000A460021018C4FF67F7319404FF6FF7394
:1028000003EA02131943018470470A460021018C30
:102810004FF6FF5319404FF6FF7303EA02231943A3
:10282000018470470A460021018C4FF2FF73194062
:102830004FF6FF7303EA02231943018470470A46E7
:102840000021018C4DF6FF7319404FF6FF7303EA28
:10285000023319430184704730B5002301248C40B2
:10286000A3B2048C9C430484048C02FA01F5ADB23B
:102870002C43048430BD30B5002304248C40A3B223
:10288000048C9C430484048C02FA01F5ADB22C4301
:10289000048430BD828B4FF2FF331A408283828BD7
:1028A0004FF6FF7303EA01231A4382837047F0B5A2
:1028B0000C461546002100220026078C4EF6FF7CB0
:1028C00007EA0C070784818B028C4FF6FF7707EA33
:1028D000043640F6FF4739404FF6FF7707EA0527F1
:1028E00039434FF6FF7707EA0337394345F6FF7759
:1028F0003A4046F480573A4381830284F0BD828B8C
:102900004FF6F3731A408283828B0A4382837047A7
:10291000F0B50C461546002100220026078C4FF624
:10292000FF6C07EA0C070784818B028C4FF6FF7758
:1029300007EA04264FF60C7739404FF6FF7707EA8F
:1029400003172F4339434FF2FF573A4046F480773D
:102950003A4381830284F0BD028B4FF2FF331A4069
:102960000283028B4FF6FF7303EA01231A430283AB
:102970007047F0B50C461546002100220026078C52
:102980004FF6EF7C07EA0C070784018B028C4FF6A9
:10299000FF7707EA041640F6FF4739404FF6FF7706
:1029A00007EA033739434FF6FF7703E000000140A1
:1029B0000004014007EA052739434FF65F773A40A4
:1029C00046F010073A4301830284F0BD028B4FF6B4
:1029D000F3731A400283028B0A4302837047F0B5F7
:1029E0000C46154600210022068C4FF6FE773E402D
:1029F0000684018B028C4FF60C7631407E1C06EA71
:102A000003162E4331434FF6F576324044F001066B
:102A1000324301830284F0BD70B505460C46208820
:102A200050B92389A28861882846FFF7D8FFE1883A
:102A30002846FFF7CBFF25E0208804280AD1238908
:102A4000A28861882846FFF794FFE1882846FFF7AF
:102A500083FF17E0208808280AD12389A28861888B
:102A60002846FFF755FFE1882846FFF748FF09E0B1
:102A70002389A28861882846FFF719FFE188284644
:102A8000FFF708FF70BD0021018041800121818096
:102A90000021C180018170472DE9F04105460C46B7
:102AA00000260127608808B9022600E00026A088D9
:102AB000012801D1022700E001272088A0B923893D
:102AC000A28861882846FFF78AFFE1882846FFF739
:102AD0007DFF23893A4631462846FFF74AFFE188C1
:102AE0002846FFF739FF13E02389A288618828462A
:102AF000FFF73FFFE1882846FFF72EFF23893A467C
:102B000031462846FFF76BFFE1882846FFF75EFF56
:102B1000BDE8F0810146486B70470146886B7047FD
:102B20000146C86B70470146086C70470A884B889D
:102B30001A438B881A43CB881A430B891A434B8953
:102B40001A438B891A43A0F8442070470021018062
:102B500041808180C180018141818181704731B193
:102B6000B0F8442042F40042A0F8442005E0B0F858
:102B70004420C2F30E02A0F84420704721B182889D
:102B800042F00402828004E082884FF6FB731A4010
:102B90008280704721B1828842F00102828004E085
:102BA00082884FF6FE731A40828070471AB183897B
:102BB0000B43838102E083898B4383817047818249
:102BC000704702460020138A0B400BB1012000E041
:102BD00000207047CA430282704730B50246002089
:102BE00000230024158A05EA0103958905EA0104FA
:102BF00013B10CB1012000E0002030BDCA430282B5
:102C0000704741EA0203A0F8483070471AB183893F
:102C10000B43838102E083898B438381704721B119
:102C2000828842F00802828004E082884FF6F773BF
:102C30001A408280704701894FF6F8721140018175
:102C400070470A46002101894FF68F7319401143DE
:102C50000181704730B504460D4629462046FFF7EE
:102C6000F0FF208940F00700208130BD2DE9F041C0
:102C700004460D4616461F46602D06D13B460122EE
:102C800031462046FFF775FE05E03B4601223146FE
:102C90002046FFF7A4FE29462046FFF7D2FF2089F1
:102CA00040F007002081BDE8F08130B50C460021DE
:102CB0000189C9B24FF6FF7505EA0325154325437F
:102CC0002943018130BD2DE9F04105460E461746E6
:102CD0009846002443463A4631462846FFF7E5FF2A
:102CE0002C894FF6F870044044F007044FF68F70BB
:102CF000044044F070042C81BDE8F081F0B5044636
:102D00000D4616461F463B46324629462046FFF7EB
:102D1000CCFF208940F480402081F0BD82884FF6AE
:102D20008F731A40828082880A43828070470289AA
:102D30004FF6F8731A40028102890A4302817047F4
:102D400002894FF67F731A40028102890A43028189
:102D50007047F0B50C4615461E46002100220023A0
:102D60000189028B038C4FF6F877394021434FF6E7
:102D7000FC473A4040F201173A434FF6DD773B40BB
:102D80004FF6FF7707EA06172F433B430181028383
:102D90000384F0BD21B1828842F08002828004E089
:102DA00082884FF67F731A4082807047A0F85010D7
:102DB00070470000016821F00101016000210160FD
:102DC00041608160C160016121214161DB4988422C
:102DD00004D13D21D94A103A91608CE0D74918318D
:102DE000884205D14FF47461D44A103A916082E070
:102DF000D2493031884205D14FF47411CF4A103A8C
:102E0000916078E0CD494831884205D14FF0746136
:102E1000CA4A103A91606EE0C8496031884204D1D4
:102E2000C749C64A103AD16065E0C4497831884242
:102E300004D1C449C14A103AD1605CE0BF49903125
:102E4000884204D1C049BD4A103AD16053E0BB4921
:102E5000A831884205D14FF03D51B84A103AD160AF
:102E600049E0BA49884204D13D21B84A083A116084
:102E700041E0B6491831884205D14FF47461B34A34
:102E8000083A116037E0B1493031884205D14FF43A
:102E90007411AE4A083A11602DE0AC4948318842BD
:102EA00005D14FF07461A94A083A116023E0A7499F
:102EB0006031884204D1A249A44A121F11601AE06D
:102EC000A2497831884204D19E49A04A121F11605C
:102ED00011E09E499031884204D19B499B4A121FC0
:102EE000116008E09949A831884204D14FF03D5162
:102EF000964A121F1160704710B500220268944B69
:102F00001A40CC680B6823434C6923438C692343E4
:102F1000CC6923430C6A23434C6A23438C6A2343C2
:102F20004C6B23438C6B23431A430260426922F0AB
:102F30000702D1E90B3423431A4342610B69436012
:102F40004B6883608B68C36010BD002101604160E5
:102F50008160C160016141618161C1610162416261
:102F60008162C162016341638163704721B102687C
:102F700042F00102026003E0026822F001020260F6
:102F8000704721B1026842F40042026003E0026827
:102F900022F400420260704721B1026842F0200230
:102FA000026003E0026822F0200202607047416084
:102FB00070470146486880B2704722B1036843F405
:102FC0000023036003E0036823F40023036001612E
:102FD000704721B1026842F48022026003E0026877
:102FE00022F48022026070470AB1016100E0C160F2
:102FF0007047014600200A6802F400220AB101204D
:1030000000E000207047014600200A6802F001023B
:103010000AB1012000E000207047014600204A6903
:1030200002F03800704730B503460A4600200024FD
:10303000464DAB4202D24149103901E043491039B3
:1030400002F000550DB14C6800E00C68414D2C4079
:1030500004EA02050DB1012000E0002030BD024667
:103060003A4B9A4202D23548103801E037481038BE
:1030700001F000531BB1374B0B40C36002E0354BEE
:103080000B408360704710B501F080034BB122B153
:10309000436943F08003436103E0436923F0800305
:1030A000436180290BD02AB1036801F01E04234339
:1030B000036004E0036801F01E04A343036010BD35
:1030C00070B50246002000240025204EB24202D2F4
:1030D0001A4B103B01E01D4B103B1F4E0E4036B10A
:1030E0001E2606EAD124166806EA040502E056699F
:1030F00006F0800501F000560EB15C6800E01C6827
:10310000144E344004EA010616B10DB1012000E06E
:10311000002070BD02460D4B9A4202D2074810387B
:1031200001E00A48103801F000531BB1094B0B4075
:10313000C36002E0074B0B408360704710600240A1
:103140003D000020400F002000003D2010640240A0
:103150003F801CF07D0F7D0F3C0F3C0FFE4A10702E
:10316000704730B1FC49096841F48071FA4A116036
:1031700005E0F949096821F48071F74A1160704748
:1031800030B1F549096841F40071F34A116005E076
:10319000F149096821F40071EF4A1160704730B1BC
:1031A000ED49096841F48061EB4A116005E0EA49A4
:1031B000096821F48061E84A11607047E6480068B8
:1031C00040F40060E44908607047E348006840F458
:1031D0008050E14908607047DF481030006800F017
:1031E000004028B1DD48DC49091D0860DC48086062
:1031F0007047D9481030006840F00040D64910317F
:10320000086070470920D4490C31096801F4803105
:10321000B1F5803F01D1012020E0CF490C31096890
:1032200001F0100109B1062018E0CB490C31096802
:1032300001F4807109B1022010E0C7490C3109681E
:1032400001F0EF0109B1072008E0C3490C3109681A
:1032500001F0020109B1082000E00920704708B51B
:1032600009200090FFF7CEFF009002E0FFF7CAFFB1
:1032700000909DF800000128F8D09DF8000008BDDE
:1032800070B504460A460026092502B909E0012A5C
:1032900001D1160205E0022A01D1160201E04FF425
:1032A0004076FFF7DCFF0546092D2DD1AA481030E6
:1032B000006820F44070A849103108600846006892
:1032C000304308600846006820F0F80008600846AF
:1032D000006844F0020108439F4910310860084625
:1032E000006840F480300860FFF7B9FF05469A484F
:1032F0001030006820F0020097491031086008463D
:10330000006820F0F8000860284670BD30B502461D
:1033100000250924FFF7A3FF044602B909E0012AAA
:1033200001D1150205E0022A01D1150201E04FF496
:103330004075092C20D188481030006820F4407076
:10334000854910310860084600682843086008462F
:10335000006840F0040008600846006840F48030CF
:103360000860FFF77CFF04467B481030006820F0BF
:103370000400794910310860204630BD30B502465E
:1033800000250924FFF76BFF044602B909E0012A72
:1033900001D1150205E0022A01D1150201E04FF426
:1033A0004075092C20D16C481030006820F4407022
:1033B00069491031086008460068284308600846DB
:1033C000006840F0040008600846006840F480305F
:1033D0000860FFF744FF04465F481030006820F0A3
:1033E00004005D4910310860204630BD30B502460A
:1033F00000250924FFF733FF044602B909E0012A3A
:1034000001D1150205E0022A01D1150201E04FF4B5
:103410004075092C20D150481030006820F44070CD
:103420004D49103108600846006828430860084686
:10343000006840F4004008600846006840F48030AE
:103440000860FFF70CFF044643481030006820F482
:103450000040414910310860204630BD70B5064635
:1034600014461D460922FFF7FAFE0246092A1ED11C
:1034700039481030006820F4407037491031086036
:103480000846006840F4407008600846006840F054
:103490000100086034607560FFF7E1FE02462E48C7
:1034A0001030006820F001002B49103108601046F0
:1034B00070BD30B502460C460925FFF7D0FE054623
:1034C000092D1DD124481030006820F44070224995
:1034D000103108600846006840F400700860084633
:1034E000006840F0010008601460FFF7B8FE054670
:1034F00019481030006820F00100174910310860A9
:10350000284630BD30B502460C460925FFF7A7FE18
:103510000546092D1DD110481030006820F4407078
:103520000D49103108600846006840F4807008605A
:103530000846006840F0010008601480FFF78FFE25
:10354000054605481030006820F00100024910319E
:103550000860284630BD0000003C0240230167455A
:10356000AB89EFCD30B502460C460925FFF777FE53
:103570000546092D17D19B48006820F440709949F1
:1035800008600846006808600846006840F00100CE
:1035900008601470FFF763FE05469248006820F04B
:1035A000010090490860284630BD8E48001D006823
:1035B00000F0010028B18C488A49083908608B481E
:1035C000086070478748001D006840F00100854989
:1035D000091D0860704730B502460C460925FFF703
:1035E0003EFE0546092D10D13CB17E48801D008865
:1035F00090437C49891D088007E07A48801D008837
:1036000091B208437749891D088030BD30B5024624
:103610000C460925FFF723FE0546092D10D13CB1C4
:1036200070480A30008890436E490A31088007E0EC
:103630006C480A30008891B208436A490A31088010
:1036400030BDFF21674AD21D127802F07F0140EAA7
:103650000102644BDB1D1A70704730B502460C4600
:103660000925FFF7FCFD0546092D10D144B15D4841
:10367000801D008891B208435A49891D088006E0E0
:103680005848801D008890435649891D088030BDE8
:1036900030B502460C460925FFF7E1FD0546092D28
:1036A00010D144B14F480A30008891B208434D49C7
:1036B0000A31088006E04B480A30008890434949A7
:1036C0000A31088030BD10B502460924FFF7C7FD56
:1036D0000446092C02D14348401D027010BDF0B5CC
:1036E00004460D46FF260927FFF7B9FD0746092FB7
:1036F0000BD13C48001D007800F00F0645EA06009B
:10370000104320433749091D0870F0BD3549091D94
:10371000097821F01001334A121D11701146097801
:103720000143117070472F49091D097821F00C01E0
:103730002C4A121D1170114609780143117070470F
:1037400000B509222748001D007840F002002549F5
:10375000091D0870FFF783FD0246104600BD214891
:10376000001D0068C0F3471070471E48801D008888
:1037700070471C480A30008870471A48801D00882E
:10378000704718480A300088704700201549491DC5
:103790000978AA2901D0012000E0002070471148D3
:1037A000001D007800F00C00704729B10D4A126826
:1037B00002430C4B1A6004E00A4A12688243094B28
:1037C0001A60704701460020064A121F12680A401C
:1037D0000AB1012000E0002070470249091F08607B
:1037E00070470000103C02403B2A19087F6E5D4C78
:1037F00010B501210807FEF7ABF900214FF080500A
:10380000FEF7A6F910BD5249086270470146002034
:10381000504A106820F0E0000843106070474C499F
:10382000086170474A49A031086070474849A4318F
:103830000860704701460020464A106820F4404066
:103840000843106070474249086470474049486423
:10385000704730B13F49096841F440213D4A116049
:1038600005E03C49096821F440213A4A116070475B
:1038700018B10121364AD16202E00021344AD162F6
:10388000704718B10121324A916202E00021304AAA
:10389000916270472E494862704710B50246002079
:1038A0002C4B186840F6034398431043294B18608B
:1038B000294B1B6843F00403274C2360012901D1E5
:1038C00030BF00E020BF244B1B6823F00403224CD0
:1038D000236010BD10B5024600201E4B186840F64C
:1038E0000343984310431B4B18601B4B1B6843F06A
:1038F0000403194C2360012901D130BF00E020BF2F
:10390000154B1B6823F00403134C236010BD1148B2
:10391000006840F002000F4908600F48006840F05E
:1039200004000D49086000BF00BF30BF704701466A
:103930000020084A52680A400AB1012000E0002035
:1039400070470449096841EA8001024A11607047E2
:1039500000000E420070004010ED00E008B50022AB
:10396000009200200021CA22F94B1A6053221A60EB
:10397000F74A183A126822F0A002F54B183B1A6079
:1039800000BFF34A183A126802F02001009A521C54
:103990000092009AB2F5003F01D00029F1D0EC4A24
:1039A000183A126802F020020AB1012000E000205B
:1039B000FF22E74B1A6008BD08B5002200920020E4
:1039C0000021E34A183A126802F04002E2B9421EAE
:1039D000DF4B183B1A6000BFDD4A183A126802F04C
:1039E0004001009A521C0092009AB2F5803F01D02B
:1039F0000029F1D0D64A183A126802F040020AB102
:103A0000012002E0002000E0012008BD38B50020C0
:103A1000009000240025CA20CD490860532008608A
:103A2000FFF7CAFF00B952E00020C94924390860F5
:103A300042F20110091D0860081D006800F007002F
:103A4000091D086000BFC2481838006800F004046F
:103A50000098401C00900098B0F5803F01D0002CE9
:103A6000F1D0BB481838006800F0040008B9002500
:103A70002DE0B7481C3800680020B5491C390860A3
:103A80004FF6FF70B24910390860B248091F08604C
:103A90000020AF490C390860091D0860091D086045
:103AA000AB4908310860AA4918310860A84920319B
:103AB0000860091D0860A64918390860A4491C312E
:103AC0000860FFF74BFF08B9002500E00125FF2043
:103AD0009F490860284638BD9D481838006820F086
:103AE00080009B4918390860704730B504460025AE
:103AF000CA209749086053200860FFF75DFF00B9AE
:103B00001DE093481C38006820F0400090491C39A3
:103B1000086008460068216808438D491C39086020
:103B20008B491439A068086008460068A18840EAFB
:103B30000140874914390860FFF7CEFF0125FF20B7
:103B400083490860284630BD002101607F21416023
:103B5000FF218160704718B1FF217D4A116004E0A8
:103B6000CA217B4A116053211160704730B5044669
:103B70000025CA207649086053200860FFF71CFF23
:103B800000B914E044B172481C38006840F01000DD
:103B90006F491C39086007E06D481C38006820F048
:103BA00010006B491C390860FFF796FF0125FF20C4
:103BB00067490860284630BDCA21654A1160532113
:103BC000116040B162491C39096841F02001604A26
:103BD0001C3A116007E05E491C39096801F0DF01F9
:103BE0005B4A1C3A1160FF21594A11607047014637
:103BF000002204E0501CC2B2A1F10A00C1B20A299D
:103C0000F8DA100741EA10607047014600BF080962
:103C100000EB8000420001F00F001044C0B270477A
:103C20002DE9F04105460C460026002755B94848C5
:103C30001C38006800F0400000B102E00020E07095
:103C400000BF0EE042481C38006800F0400020B180
:103C50002078FFF7DAFF064602E00020E07000BFA0
:103C600000BF55B120780004617840EA0120A178B6
:103C70000843E17840EA014611E02078FFF7B7FFFA
:103C80004FEA00486078FFF7B2FF48EA0028A078C2
:103C9000FFF7ADFF48EA0008E07848EA0046CA208E
:103CA0002B49086053200860FFF786FE08B90027FB
:103CB00014E029483040264924390860FFF70CFFFA
:103CC00023481C38006800F0200030B9FFF746FE9A
:103CD00008B9002702E0012700E00127FF201C4966
:103CE00008603846BDE8F0810021C1700170417064
:103CF0008170704770B506460C460025144824387C
:103D00000068154900EA0105C5F305402070C5F3B8
:103D10000620607005F07F00A07005F48000000CA4
:103D2000E0705EB92078FFF770FF20706078FFF7D1
:103D30006CFF6070A078FFF768FFA07070BD002076
:103D40000349091D086802492039096870470000C5
:103D500024280040FF007F007F7F7F002DE9F04195
:103D600005460C46002600274DB9607800F010008B
:103D7000102804D1607820F010000A30607005B976
:103D800008E06078FFF741FF0646A078FFF73DFFA7
:103D9000064600BF55B1E0780004617840EA012092
:103DA000A1780843217840EA413611E0E078FFF736
:103DB0001EFF4FEA00486078FFF719FF48EA002825
:103DC000A078FFF714FF48EA0008207848EA403658
:103DD000CA20FE49086053200860FFF7EDFD08B9CE
:103DE000002714E0FA483040F84920390860FFF70E
:103DF00073FEF6481C38006800F0200030B9FFF769
:103E0000ADFD08B9002702E0012700E00127FF20EF
:103E1000EE4908603846BDE8F081012101708170EB
:103E200041700021C170704770B506460C460025F0
:103E3000E64820380068E64900EA0105280CE070F1
:103E4000C5F30420607005F03F00A070C5F3423058
:103E500020705EB9E078FFF7D8FEE0706078FFF779
:103E6000D4FE6070A078FFF7D0FEA07070BD2DE981
:103E7000F04105460E46144600276DB9D3481C385C
:103E8000006800F0400000B102E00020E07000BFD8
:103E9000A06800B91AE019E0CC481C38006800F0AE
:103EA000400020B12078FFF7B0FE074602E0002076
:103EB000E07000BFA06820B9207BFFF7A6FE074690
:103EC00004E0207BFFF7A1FE074600BF95B12078F4
:103ED0000004617840EA0120A1780843E17840EAD3
:103EE0000140217B40EA0160A1680843616840EA23
:103EF00001071BE02078FFF77AFE4FEA0048607860
:103F0000FFF775FE48EA0028A078FFF770FE48EA40
:103F10000008E07848EA0048207BFFF768FE48EA9E
:103F20000060A1680843616840EA0107CA20A74908
:103F3000086053200860B6F5807F03D1A348083895
:103F4000076002E0A148001F0760FF209F4908604A
:103F5000BDE8F0810021C170017041708170816005
:103F6000012101730021416070472DE9F0410646AF
:103F70000F4614460025B7F5807F03D193480838D3
:103F8000056802E09148001F0568C5F305402070F0
:103F9000C5F30620607005F07F00A07005F4800076
:103FA000000CE070C5F30560207305F08040A06050
:103FB00005F0803060607EB92078FFF726FE207023
:103FC0006078FFF722FE6070A078FFF71EFEA070F9
:103FD000207BFFF71AFE2073BDE8F08138B502465A
:103FE0000024009400230020CA24784D2C60532420
:103FF0002C6041B1754C1C3C24681443734D1C3D2E
:104000002C6001201EE0714C1C3C246894436F4DD1
:104010001C3D2C6000BF6D4C183C246804EA122340
:10402000009C641C0094009CB4F5803F01D0002BE0
:10403000F1D0664C183C246804EA12240CB9002024
:1040400000E00120FF24614D2C6038BD30B5002315
:10405000CA245E4D2C6053242C6041EA0203B0F563
:10406000807F03D1594C2034236002E0574C243424
:104070002360FF24554D2C6030BD01460020B1F572
:10408000807F05D1514A20321268C2F30E0004E04D
:104090004E4A24321268C2F30E007047CA214B4ABE
:1040A00011605321116049491C39096821F0070149
:1040B000464A1C3A11601146096801431160FF210C
:1040C000424A11607047CA21404A11605321116071
:1040D0003E4910390860FF21116070473B48103895
:1040E000006880B2704718B5014600230093002293
:1040F0000020CA23354C23605323236049B1334B3E
:104100001C3B1B6843F48063304C1C3C2360012043
:104110001FE02E4B1C3B1B6823F480632B4C1C3C84
:10412000236000BF294B183B1B6803F00402009B6F
:104130005B1C0093009BB3F5803F01D0002AF1D0B7
:10414000224B183B1B6803F004030BB9002000E06E
:104150000120FF231D4C236018BDCA221B4B1A608F
:1041600053221A60194A1C3A126822F48022174B13
:104170001C3B1A601A46126840EA01031A43134BAB
:104180001C3B1A60FF22114B1A6070470F481C3805
:10419000006800F480207047CA220C4B1A6053223A
:1041A0001A600A4A1C3A126822F4E002074B1C3BD0
:1041B0001A601A46126840EA01031A43034B1C3B7B
:1041C0001A60FF22014B1A6070470000242800404B
:1041D0003FFFFF0070B504460D460026CA20F64991
:1041E000086053200860FFF7E7FB00B907E044EAE6
:1041F0000500F1490C390860FFF76EFC0126FF202D
:10420000ED490860304670BD30B504460025CA202F
:10421000E949086053200860FFF7CEFB00B914E0BD
:1042200044B1E5481C38006840F08000E2491C3980
:10423000086007E0E0481C38006820F08000DE4994
:104240001C390860FFF748FC0125FF20DA490860A7
:10425000284630BDCA21D84A11605321116040B1AF
:10426000D5491C39096841F40001D34A1C3A116050
:1042700007E0D1491C39096821F40001CE4A1C3AF3
:104280001160FF21CC4A11607047CA21CA4A1160EF
:1042900053211160C8491C39096821F40021C64A1C
:1042A0001C3A11601146096801431160FF21C24A9E
:1042B0001160704770B5034600200024CA25BE4E29
:1042C000356053253560BC4D183D2D6805F48035AB
:1042D00055B100E0641CB84D183D2D6805F48035DB
:1042E00015B1B4F5003FF5D1B34D183D2D6805F477
:1042F00080353DB943EA01051543AF4E18363560A8
:10430000012000E00020FF25AB4E356070BD10B5E8
:104310000A460021A84B1C3B1B6840F6080423EA10
:1043200004011AB140F40063194300E00143CA23B9
:10433000A14C2360532323609F4B1C3B1960FF2338
:10434000236010BD2DE9F04180460C46154600263D
:10435000002799480C300068984900EA0106964801
:1043600010300068964900EA0107C6F30540207046
:10437000C6F30620607006F07F00A07006F480008F
:10438000000CE0700020E870C7F30420687007F0AC
:104390003F00A870C7F342302870B8F1000F17D162
:1043A0002078FFF732FC20706078FFF72EFC6070F9
:1043B000A078FFF72AFCA0706878FFF726FC6870E9
:1043C000A878FFF722FCA8702878FFF71EFC287059
:1043D000BDE8F081784814300068704741B9764AEA
:1043E0001C32126822EA4002734B1C331A6007E049
:1043F000714A1C32126842EA40026F4B1C331A6049
:10440000704739B16C4A1C32126802436A4B1C3344
:104410001A6006E0684A1C3212688243664B1C33FD
:104420001A60704764491C31096821F4C051624A1E
:104430001C321160114609680143116070475E49E2
:104440001C31096821F4E0615B4A1C32116011469D
:10445000096801431160704757491C31096821F40C
:10446000C041554A1C321160114609680143116070
:10447000704740B150491C31096841F080014E4AF3
:104480001C32116007E04C491C31096821F08001A1
:10449000494A1C321160704740B147491C310968D4
:1044A00021F40041444A1C32116007E042491C31AA
:1044B000096841F40041404A1C321160704708B558
:1044C000002200923C4A2C320092009A02EB8002B9
:1044D0000092009A116008BD08B5014600200090C6
:1044E00035482C300090009800EB81000090009837
:1044F000006808BD30491C31096821F480312E4A1A
:104500001C321160114609680143116070472A4945
:104510001C31096821F40031274A1C321160114610
:10452000096801431160704723491C31096821F46F
:104530008021214A1C321160114609680143116033
:104540007047F0B504460D4600270026CA201A49D8
:1045500008605320086018481838006800F0080008
:1045600050B100E0761C14481838006800F00800CC
:1045700010B1B6F5805FF5D10F481838006800F02B
:10458000080098B90C481C38006800F0100058B9B1
:1045900045EA0400084908310860FFF7DFF908B967
:1045A000002704E0012702E0002700E00027FF20A9
:1045B000014908603846F0BD242800407F7F7F0015
:1045C0003FFFFF00CA223D4B1A6053221A6091B18F
:1045D0003A4A1C3A126820F004031A43374B1C3B3A
:1045E0001A60364A1C32126800F004031A43334B37
:1045F0001C331A6011E0314A1C3A126820F004039F
:104600009A432E4B1C3B1A602C4A1C32126800F055
:1046100004039A43294B1C331A60FF22274B1A606C
:10462000704710B5014600200022244B183B1B6840
:10463000234C03EA040202EA01030BB1012000E06B
:10464000002010BD81B241F080011C4A183A126866
:1046500002F0800262EA0101184A183A11607047BC
:1046600030B50146002000220023144C1C3424687D
:1046700004F00402114C1C3C24680C4002EAD135C1
:1046800044EA05030D4C183C246804EA11121BB1DE
:1046900094B20CB1012000E0002030BD00210109DE
:1046A0008AB242F08002054B183B1B6803F080037E
:1046B00063EA0202014B183B1A607047242800404D
:1046C0007F3F01000E49086070470D494860704700
:1046D0000B49886070474AF6AA200949086070476C
:1046E0004CF6CC4006490860704701460020044A59
:1046F000D2680A400AB1012000E0002070470000A3
:1047000000300040F0B502460B46FF26FF2409E0CA
:1047100012F8015B86EA0501FB48405C80EA04066A
:10472000FA48445C1800A3F10107BBB2F0D144EA97
:10473000062080B2F0BD10B50246B1F5964F01D902
:10474000022004E04B00F24CB4FBF3F398B20023D8
:10475000F04C23702346588098800023A37140F2C8
:10476000DC54EC4B1C815C8110BD2DE9FF5F92464F
:104770009B460E9F0026E8480078052832D2DFE8E5
:1047800000F003324243DC00E449019809684871B3
:104790000098C1B2E148006881714FEA2A21DF48E0
:1047A0000068C171DD48006880F808A04FEA2B213D
:1047B000DA4800684172D948006880F80AB00621DA
:1047C000D6480068401DFFF79DFF81464FEA29212A
:1047D000D2480068C172D148006880F80C9001206E
:1047E000CD490870C3E00821CD48FCF735FC00BF77
:1047F000CC4840780028FBD10120C64988710220AE
:10480000C5490870B3E0B2E0C448006890F80901F7
:1048100007287BD2DFE800F08B04053D3E063F0011
:1048200000BF00BFBD48006890F80A51E91CBB48B2
:10483000006800F58470FFF765FF8046B7480068A0
:1048400000F58470291D425CB448006800F584704E
:10485000E91C405C02EB002141450DD1AF480068E6
:1048600090F80B0138800020AF490870AA49087001
:10487000012004B0BDE8F09F002406E0002027F8E6
:104880001600701CC6B2A01CC4B2AC42F6DB0120FC
:10489000EFE700BF00BFA148006890F80A51E91C8B
:1048A0009E48006800F58470FFF72CFF80469B4807
:1048B000006800F58470291D425C9848006800F586
:1048C0008470E91C405C02EB002141451FD10024AB
:1048D00013E09248006800F58470211D425C8F4807
:1048E000006800F58470E11C405C02EB002027F8B2
:1048F0001600701CC6B2A01CC4B2AC42E9DB00209A
:1049000089490870844908700120B2E70FE000244B
:1049100006E0002027F81600701CC6B2A01CC4B226
:10492000AC42F6DB00207C4908700120A1E70120A1
:104930007949087000BF00BF00BF7C480078052897
:1049400011DD002079490870002406E0002027F8D6
:104950001600701CC6B2A01CC4B2AC42F6DB01202B
:104960006D49087085E701206B49087000BF00BFE2
:1049700000207EE72DE9F84305460E461746984687
:10498000DDF82090002400BF43463A4631462846D1
:10499000CDF80090FFF7E9FE0446002CF4D0204645
:1049A000BDE8F88360490A780978491C5E4B1970A4
:1049B0005A49096801F5847188540121554A1170DA
:1049C00011464988491C9180704752480078D0B1FF
:1049D00050488088401E4F498880084680880028BB
:1049E00039D1524908704B4840884A49888040F282
:1049F000DC514848418100204649887108700320F5
:104A00004549087027E04348807920B341484089F0
:104A1000401E81B23F4841814089E0B94348007857
:104A200005280ADD40F2DC513A484181002039492D
:104A300088710420384908700DE03C480078401C1B
:104A40003A49087040F2DC51324841810020314936
:104A5000887131490870704710B53548354902688A
:104A6000081F01F08FFE32483249091D4268C81FF5
:104A700001F088FE10BD70B52F4C246804EB411482
:104A800064790A2C11D2DFE804F01005115987C5AA
:104A900088C6FEFD02251688741C1480855513F8FF
:104AA00021501688741C1480855532E1042516881F
:104AB000741C14808555204C246804EB4114D4EDFB
:104AC000040AFCEEE00A10EE904A53F821601A4DF9
:104AD0002D6805EB4115D5ED030AFCEEE00A10EE5A
:104AE000905A06FB054443F8214033F82140C4F3B3
:104AF00007251688741C1480855513F821501688D4
:104B0000741C1480855504E1AC810008AC82000857
:104B1000C82C010014100020460000205400002082
:104B2000586002400003002044000020450000209F
:104B300068000020E81400204800002003251688A3
:104B4000741C14808555F94C246804EB4114D4ED91
:104B5000040AFCEEE00A10EE904A53F82160F34D8F
:104B60002D6805EB4115D5ED030AFCEEE00A10EEC9
:104B7000905A06FB054443F8214033F82140C4F322
:104B800007251688741C1480855513F82150168843
:104B9000741C14808555BCE000BF06251688741C63
:104BA00014808555E14C246804EB4114D4ED040ACB
:104BB000FCEEE00A10EE904A53F82160DB4D2D68C0
:104BC00005EB4115D5ED030AFCEEE00A10EE905A14
:104BD00006FB054443F8214053F82140250E168872
:104BE000741C1480855553F82140C4F3074516887A
:104BF000741C1480855533F82140C4F307251688AA
:104C0000741C1480855513F821501688741C148068
:104C100085557EE000BF05251688741C14808555D7
:104C2000C24C246804EB4114D4ED040AFCEEE00A03
:104C300010EE904A53F82160BC4D2D6805EB4115EC
:104C4000D5ED030AFCEEE00A10EE905A06FB05448F
:104C500043F8214053F82140250E1688741C148017
:104C6000855553F82140C4F307451688741C1480F9
:104C7000855533F82140C4F307251688741C148029
:104C8000855501E008E006E013F821501688741CF1
:104C9000148085553DE000BF33251688741C1480B0
:104CA000855503EB8104D4ED000AB0EE600A9F4CF9
:104CB000246804EB4114D4ED040A9C4C246804EBF2
:104CC000411494ED031A40EE010AB0EE600A10EEB2
:104CD000104A43F8214053F82140250E1688741CD1
:104CE0001480855553F82140C4F307451688741C79
:104CF0001480855533F82140C4F307251688741CA9
:104D00001480855513F821501688741C148085551D
:104D100000BF00BF70BDF0B505460E4614461F46E5
:104D200022212288501C2080A95404212288501C52
:104D30002080A9547D48006800EB4610C08801120D
:104D40002288501C2080A9547848006800EB461047
:104D500081792288501C2080A9547448006800EB97
:104D60004610008901122288501C2080A9546F48E7
:104D7000006800EB4610017A2288501C2080A9545C
:104D800004212288501C2080A954297B2288501C91
:104D90002080A954697B2288501C2080A954A97BBB
:104DA0002288501C2080A954E97B2288501C208036
:104DB000A9543B46224631462846FFF75CFEF0BD2B
:104DC00070B55B4C246804EB411464790A2C11D251
:104DD000DFE804F01005113F6DB06EB1F0F102256F
:104DE0001688741C1480855513F821501688741C7D
:104DF000148085551CE104251688741C1480855583
:104E000053F8214000EE904AB8EE600A484C2468FE
:104E100004EB4114D4ED040A454C246804EB41141E
:104E200094ED031A40EE010AFCEEE00A10EE904AFF
:104E300043F8214033F82140C4F307251688741C39
:104E40001480855513F821501688741C14808555DC
:104E5000EEE003251688741C1480855553F8214014
:104E600000EE904AB8EE600A314C246804EB41141D
:104E7000D4ED040A2E4C246804EB411494ED031A7B
:104E800040EE010AFCEEE00A10EE904A43F82140A1
:104E900033F82140C4F307251688741C1480855507
:104EA00013F821501688741C14808555C0E000BF8B
:104EB00006251688741C1480855553F8214000EE91
:104EC000904AB8EE600A1A4C246804EB4114D4ED01
:104ED000040A174C246804EB411494ED031A40EEC5
:104EE000010AFCEEE00A10EE904A43F8214053F824
:104EF0002140250E1688741C1480855553F82140D6
:104F0000C4F307451688741C1480855533F8214076
:104F1000C4F307251688741C1480855513F8215096
:104F20001688741C1480855582E00000480000201B
:104F30004C00002000BF05251688741C1480855580
:104F400053F8214000EE904AB8EE600AFE4C246807
:104F500004EB4114D4ED040AFB4C246804EB411427
:104F600094ED031A40EE010AFCEEE00A10EE904ABE
:104F700043F8214053F82140250E1688741C1480F4
:104F8000855553F82140C4F307451688741C1480D6
:104F9000855533F82140C4F307251688741C148006
:104FA000855513F821501688741C148085553FE0F0
:104FB00001E0FFE700BF33251688741C1480855577
:104FC00003EB8104D4ED000AB0EE600ADE4C2468E5
:104FD00004EB4114D4ED040ADB4C246804EB4114C7
:104FE00094ED031A40EE010AB0EE600A10EE104A8A
:104FF00043F8214053F82140250E1688741C148074
:10500000855553F82140C4F307451688741C148055
:10501000855533F82140C4F307251688741C148085
:10502000855513F821501688741C1480855500BFCF
:1050300000BF70BDF0B505460E4614461F4622213E
:105040002288501C2080A95404212288501C2080D2
:10505000A954BD48006800EB4610C08801122288A0
:10506000501C2080A954B848006800EB4610817994
:105070002288501C2080A954B348006800EB4610D9
:10508000008901122288501C2080A954AE48006873
:1050900000EB4610017A2288501C2080A9543B4620
:1050A000224631462846FFF78BFE04212288501CF9
:1050B0002080A954297B2288501C2080A954697B18
:1050C0002288501C2080A954A97B2288501C208053
:1050D000A954E97B2288501C2080A9547F21228872
:1050E000501C2080A954F0BD2DE9FF4F85B0054626
:1050F0000F4699460020049000269448D0E90012FB
:105100008068CDE901120390B046BDF80400288004
:105110009DF80600A8708E480168C5F805108088C3
:10512000A5F809000798E872FBF714FC82464FEADD
:105130001A608DF800004FEA1A408DF801004FEA1E
:105140001A208DF802000AF0FF008DF80300009885
:10515000E8600120287400206874A874E8744FF493
:1051600000717C48FCF734FA0798012804D01F2806
:1051700077D0202872D10AE04FF014084FEA282097
:10518000E87085F80480404609B0BDE8F08F16202D
:10519000049000244DE07048407820446F4909682D
:1051A00001EB4010007D30B16D4890F8B10410B9AA
:1051B0006C48007B78B9684840782044C1B23B46CF
:1051C00004AA2846FFF7A7FD0220654981F8B1042B
:1051D000701C86B21EE0BDF810B05F4840782044D5
:1051E000C1B23B4604AA2846FFF795FD5A484078CD
:1051F000204457F82000584949782144574A1268FA
:1052000002EB41118969884202D0701C86B201E02C
:10521000CDF810B050484078204457F820104E4840
:10522000407820444D4A126802EB40108161601CB6
:1052300084B24C45AFDB4848407848444649487002
:105240006EB1002028756E75BDF810804FEA2820D9
:10525000E87085F80480404696E702E0BDE0002053
:1052600092E7162004900024A0E03B4840782044B8
:105270003A49096801EB4010007D022851DABDF877
:1052800010B0354840782044C1B23B4604AA2846B5
:10529000FFF7D0FE30484078204457F820002E49D0
:1052A00049782144284A126802EB411189698842F1
:1052B0000BD00220284949782144234A126802EB86
:1052C00041110875701C86B261E023484078204483
:1052D0001D49096801EB4010007D30B12148007B79
:1052E00018B11F4890F8B10410B1701C86B24EE09E
:1052F00019484078204457F820001749497821443C
:10530000114A126802EB41118969884203D114489D
:1053100090F8B10410B1701C86B238E0CDF810B02E
:1053200035E0BDF810B00C4840782044C1B23B468F
:1053300004AA2846FFF77EFE07484078204457F825
:105340002000054949780FE04C000020AC8300089C
:105350008900002000040240500000204800002086
:1053600034100020C01C00202144974A126802EB30
:1053700041118969884208D1012094494978214422
:10538000934A126802EB41110875701C86B28F486F
:105390004078204457F820008C49497821448A4AB3
:1053A000126802EB41118861601C84B24C45FFF623
:1053B0005CAF864840784844844948705EB100201C
:1053C00028756E75BDF810804FEA2820E87085F8C2
:1053D00004804046D8E60020D6E60020D4E630B56A
:1053E00090F90030062B3BD2DFE803F03A030408C3
:1053F000090500BF00BF0B88136031E000BF0379CF
:10540000FF2B20D14379032B1ADD4379042B04D0E1
:10541000052B03D0082B0AD101E000BF00BF4B8849
:1054200013600C88136803EB0443136007E04B8898
:1054300013600C88136803EB0443136000BF0EE095
:105440000B8813600BE00B88136005790124AC40D6
:10545000136823400BB1012300E00023136000BF59
:1054600000BF30BD2DE9FC4780460F4615464FF47E
:1054700000715848FCF7AEF800262FE008FB0760E3
:1054800084B25148006800EB44104079032801DDE4
:10549000022000E0012082464B48006800EB4410E7
:1054A00090F90000322817DA01A805EB44130090A8
:1054B0005B889AB205EB4413597805EB44131878CE
:1054C0005346FFF757FA8146434901EB860205EB45
:1054D000441001A9FFF783FF701CC6B2BE42CDDBAA
:1054E0004846BDE8FC872DE9F047074688469146C7
:1054F000002036494870394890F8B104022803D199
:105500000020364981F8B1045A2097FBF0F0C5B26B
:10551000002614E042465A213046FFF7A3FF60B14F
:105520005A234A462C492D48FFF7DEFD044624B194
:10553000012221462948FAF7C8FE701CC6B2AE42C5
:10554000E8DB5A2097FBF0F100FB1170C5B29DB16A
:105550000026424629463046FFF784FF60B12B46BD
:105560004A461D491D48FFF7BFFD044624B10122EC
:1055700021461A48FAF7A9FEBDE8F08710B517488A
:1055800090F8B00488B116480378012212491348F4
:10559000FFF7AAFD0446012221461048FAF795FEBE
:1055A00000200E4981F8B0040DE01F220648016872
:1055B0000B480088FFF797FF20220548016809483B
:1055C0000088FFF790FF10BD4C0000205000002025
:1055D0004800002000040240F01400203410002095
:1055E00094000020920000202DE9F0472DED028B61
:1055F00006464FF00009344630782D2803D1741C3C
:105600004FF001090BE03078302808D170782E284F
:1056100005D09FEDF70ABDEC028BBDE8F0872E2187
:10562000204602F04FF98046B8F1000F73D0A8EB86
:105630000400C5B2062D6BD2DFE805F06A030A1735
:105640002A462078303800EE100AB8EEC08A5FE0B3
:10565000607830382178303901EB810100EB41006E
:1056600000EE100AB8EEC08A52E02078303864218B
:1056700010FB01F16078303800EB800001EB400155
:10568000A0783038084400EE100AB8EEC08A3FE037
:10569000207830384FF47A7110FB01F1607830389F
:1056A00000EBC00202EB001001EB8001A078303863
:1056B00000EB800001EB4001E0783038084400EE58
:1056C000100AB8EEC08A23E02078303842F2107118
:1056D00010FB01F16078303800EB4002C2EBC010E3
:1056E00001EBC001A078303800EBC00202EB0010E3
:1056F00001EB8001E078303800EB800001EB4001E5
:1057000020793038084400EE100AB8EEC08A00BF95
:1057100000BF00270CE08FE060193844407820B1CA
:105720006019384440780D2800D103E0781CC7B2D6
:10573000042FF1DB00BF012F06D0022F10D0032F62
:1057400023D0042F5DD13CE06019407830384FF40D
:105750007A7110FB01F000EE100AF8EEC08A50E0FA
:105760006019407830384FF47A7110FB01F16019FC
:105770008078303800EBC00202EB001001EB8000B3
:1057800000EE100AF8EEC08A3BE06019407830382D
:105790004FF47A7110FB01F160198078303800EB1A
:1057A000C00202EB001001EB80016019C0783038B4
:1057B00000EB800001EB400000EE100AF8EEC08A1A
:1057C0001FE06019407830384FF47A7110FB01F116
:1057D00060198078303800EBC00202EB001001EB5A
:1057E00080016019C078303800EB800001EB400187
:1057F000601900793038084400EE100AF8EEC08ACB
:1058000000BF00BF9FED7B0AC8EE800AF0EE608A01
:10581000B2EE040AC8EE800AF0EE608A38EE280A7A
:10582000B0EE408AB9F1000F05D0BFEE000A28EEB5
:10583000000AB0EE408A84E0002507E0605D10B108
:10584000605D0D2800D103E0681CC5B2052DF5DBB5
:1058500000BF062D6BD2DFE805F06A030A172A465F
:105860002078303800EE100AB8EEC08A5FE0607829
:1058700030382178303901EB810100EB410000EE36
:10588000100AB8EEC08A52E020783038642110FB4C
:1058900001F16078303800EB800001EB4001A07826
:1058A0003038084400EE100AB8EEC08A3FE0207895
:1058B00030384FF47A7110FB01F16078303800EB2A
:1058C000C00202EB001001EB8001A078303800EB41
:1058D000800001EB4001E0783038084400EE100A07
:1058E000B8EEC08A23E02078303842F2107110FB05
:1058F00001F16078303800EB4002C2EBC01001EBE0
:10590000C001A078303800EBC00202EB001001EBC0
:105910008001E078303800EB800001EB4001207915
:105920003038084400EE100AB8EEC08A00BF00BF4D
:10593000B9F1000F05D0BFEE000A28EE000AB0EE64
:10594000408AB0EE480A66E60FB42DE9F04F87B002
:10595000DDF86CA0199E28A1002001F0ADFF109089
:10596000109801F09CFF2549087023A1002001F048
:10597000A3FF1090109801F092FF00F0FF0B9AF82F
:10598000000058448AF800000027DEE00020049060
:105990000590069001900290039017A101F08CFFF2
:1059A0001090109C204601F07AFF40B28DF8440020
:1059B0002C21204601F086FF441C204601F06FFF99
:1059C00040B28DF845002C21204601F07BFF441C9D
:1059D000204601F064FF00B2ADF8460025462C21B8
:1059E000204601F06FFF04464FF000081AE0000067
:1059F0000000000000007A447C0000008F000020BE
:105A000015F808002E280BD12E21284601F05AFF48
:105A1000401C009001F043FFC0B28DF8480004E044
:105A200008F10108601B4045EADC00BF601B4045EF
:105A300002DCFF208DF84800641C204601F02FFF97
:105A4000C0B28DF849002C21204601F03BFF441CD8
:105A5000204601F024FF80B2ADF84A002E212046F6
:105A600001F030FF441C204601F019FF80B2ADF870
:105A70004C002C21204601F025FF441C2C212046FF
:105A800001F020FF0546281B00F0FF094A46214689
:105A900004A802F07BF82C21204601F013FF441CDF
:105AA00025464FF000090CE028782C2800D10BE0A7
:105AB000287801A901F809006D1C09F1010000F026
:105AC000FF09B9F10A0FEFDB00BF2C21204601F0DE
:105AD000F9FE441C204601F0E2FEC0B28DF85800E9
